:020000020000FC
:0200000071C0CD
:02000C0097C09B
:02000800ADC089
:02001000B9C075
:1000E40000E00AB90FEF04B90FEF05B981E28EBF42
:1000F4008FEF8DBF0EE00DBB08EA0093690070E03E
:1001040080E0789480E06CE365B90E948A00FACFBD
:100114002F9323E03AE846E54A95F1F73A95E1F75B
:100124002A95D1F700C02F91089505B969B1673FA9
:1001340091F00E948A00089581E00CEE0E949700DD
:100144000CED0E9497000CEB0E9497000CE70E94B4
:10015400970080E01895813069F18230C9F00895E4
:1001640082E007E30E9497000BE305B90E94970021
:100174000DE30E9497000EE30E94970080E018951B
:1001840000E005B90E948A0009B10F3FC9F718952C
:1001940007E005B90E948A000BE005B90E948A00B5
:1001A4000DE005B90E948A000EE005B90E948A009C
:1001B40080E0089500EE05B90E948A0000ED05B9BB
:1001C4000E948A0000EB05B90E948A0000E705B985
:0601D4000E948A0008955C
:00000001FF
