:020000020000FC
:0200000071C0CD
:020010008BC0A3
:02000800A0C096
:1000E40000E00AB90FEF04B90FEF05B981E28EBF42
:1000F4008FEF8DBF06E00DBB08E80093690078948C
:100104006CE365B90E948700FBCF2F9323E03AE8A4
:1001140046E54A95F1F73A95E1F72A95D1F700C0FB
:100124002F9108950CEE05B90E9487000CED05B9D6
:100134000E9487000CEB05B90E9487000CE705B903
:100144000E948700189507E305B90E9487000BE316
:1001540005B90E9487000DE305B90E9487000EE3EC
:0801640005B90E9487001895FF
:00000001FF
