:020000020000FC
:100000000E9451000FEF04B9AFEFA5B9A0E0A7B966
:1000100010E80FE731E09FE741E24EBF4FEF4DBFE1
:10002000012F00950F931695131709F0F9CF012FA3
:1000300000950F9300C05FEFA6B1A51761F40F9173
:1000400005B9091719F00E945100F5CF10E80FE724
:100050000E945100E5CF0E94510041E24EBF4FEF98
:100060004DBF0FEF10E05FEFA6B1A51749F60F9354
:10007000011789F0000F05B90E945100F4CF5FEF1E
:10008000A6B1A51781F730E0041741F00F9105B92B
:100090000E945100F4CF05B900E0F1CF05B90FEF90
:1000A000E2CF2F933F934F9323E03AE846E54A95FA
:1000B000F1F73A95E1F72A95D1F700C04F913F91BA
:0400C0002F910895DF
:00000001FF
