:020000020000FC
:0200000075C0C9
:020004006FC0CB
:1000E400B0E0B81769F131F40FEF04B90FEF05B9B7
:1000F40060E06AB961E06DBB62E060936900789486
:1001040080E010E80FE731E09FE741E24EBF4FEF98
:100114004DBF012F00950F931695131709F0F9CFD2
:10012400012F00950F9300C00F9105B9091719F01D
:100134000E94C600F9CF10E80FE70E94C600E9CF7D
:1001440061E06DBB62E060936900789441E24EBF68
:100154004FEF4DBF0FEF10E081E00F9330E0011738
:1001640069F0000F05B90E94C600F7CF30E004170C
:1001740041F00F9105B90E94C600F8CF05B900E01F
:10018400F5CF05B90FEFE9CF2F933F934F9323E0BA
:100194003AE846E54A95F1F73A95E1F72A95D1F719
:0A01A40000C04F913F912F91089584
:00000001FF
